S01600004163636573735F436F6E74726F6C2E737265637C
S11300009FC00000B9C00000B7C00000B5C0000028
S1130010B3C00000B1C00000AFC00000ADC000001C
S1130020ABC00000A9C00000A7C00000A5C000002C
S1130030A3C00000A1C000009FC000009DC000003C
S11300409BC0000099C0000097C0000095C000004C
S113005093C0000091C000008FC000008DC000005C
S11300608BC0000089C000008C08200820082008EC
S113007020088C088C08200820088C0820082008F8
S11300808C082008200820088C0820088E088E0878
S11300908E088E0841088E088E088E0844088E0843
S11300A08E0847088E088E088E088E088E088E08E3
S11300B090089008900890086608900890089008A6
S11300C06908900890086C089008900890089008B7
S11300D090089008B508BA08BA08BA08D008B50854
S11300E0B508BA08D008B508BA08D008B508BA08DF
S11300F0BA08BA08B508BA08B409CF09CF09CF09B4
S1130100EA09CF09B409CF09EA09B409CF09EA0910
S1130110B409CF09CF09CF09B409CF09CF0BCF0B4D
S1130120DF0BD10BD10BD30BD30BD30BD30BD50BD1
S1130130D50BD50BD70BD70BD90BDB0BDD0BDD0B9D
S113014011241FBECFEFD8E0DEBFCDBF12E0A0E088
S1130150B1E0E0EFF1E202C005900D92A431B107E5
S1130160D9F722E0A4E1B2E001C01D92A132B207A6
S1130170E1F703D00C94F61043CFCF93DF93CDB7C0
S1130180DEB7C450D1400FB6F894DEBF0FBECDBF6A
S11301908AB18FEF8AB987B18F6087B9109216023E
S11301A019821A821B821C8280E0ADD286E091E023
S11301B0C8D2A12C0F2EF8E2CF2ED12CF02D0F2E69
S11301C0F7E2EF2EF12CF02D00E023E230E045E2DF
S11301D050E064E270E086E091E0E5D21F928DE0A9
S11301E08F931F928FE08F931F921F921F928EE026
S11301F08F931F928CE08F931F9289E08F931F92AD
S113020088E08F931F9287E08F931F928BE08F93E8
S11302101F9286E08F931F9285E08F931F9284E054
S11302208F931F928AE08F931F9283E08F931F9284
S113023082E08F931F9281E08F938F9386E091E009
S11302409F938F93DBD20FB6F894DEBF0FBECDBF62
S113025064E186E091E07ED385E191E05BD585E1C0
S113026091E0A8D605E024E04BE250E06AE270E0B9
S113027085E191E09CD520E04BE250E06AE270E039
S113028085E191E085D540E068E085E191E00E9458
S1130290900985E191E0A4D580E391E00E940D0EE0
S11302A09FEFE7EAF1E69150E040F040E1F700C04B
S11302B0000085E191E07ED686E091E06BD45F9A00
S11302C08E3009F0CBC080911602816080931602B3
S11302D080E090E02ED2813420F060E080E090E075
S11302E01BD280E090E025D2D82E082F10E0000F1A
S11302F0111F000F111F0F5F1F4F8091160280FF07
S1130300ADC00F2EF2E54F2EF1E05F2EF02D0F2E33
S1130310F3E76F2EF1E07F2EF02D0F2EF3EB8F2EEF
S1130320F1E09F2EF02D0F2EF1E9AF2EF1E0BF2E5C
S1130330F02D81E491E00E940D0ECE0101961C0186
S11303407801C12C86E091E025D48F3FB1F0F10112
S113035081931F01682FC701DFD18AE290E00E94D8
S1130360080E61E085E191E043D7C394FFEFEF1AF3
S1130370FF0A24E0C212E6CF03C083E08C1510F715
S11303809FE39D1508F0D3946D2D80E090E0C4D1D7
S11303900C5F1F4F85E191E00DD65F924F920E9452
S11303A0F50DEFEFF7EA21E6E150F0402040E1F7E8
S11303B000C0000085E191E0FDD57F926F920E941C
S11303C0F50D86E091E0E6D3F82E8FEF8F0D0F90B8
S11303D00F900F900F90823040F086E091E0DAD3D6
S11303E0F82E8FEF8F0D8230C0F785E191E0E2D5D2
S11303F082E0F81215C0809116028E7F8093160257
S1130400BF92AF920E94F50D9FEFE7EAF1E691509B
S1130410E040F040E1F700C000000F900F9017C0DB
S113042021E0F21214C080911602816080931602BA
S11304309F928F920E94F50D8FEF97EAE1E681502B
S11304409040E040E1F700C000000F900F9085E17C
S113045091E0B0D58091160280FD6BCF80E090E0F2
S113046068D1782EF0E4F81740F460E080E090E082
S113047053D180E090E05DD1782E1F927F9284EC7E
S113048091E09F938F930E94F50D2FEF87EA91E6F9
S1130490215080409040E1F700C0000085E191E0E8
S11304A089D50F900F900F900F90772009F458C0C2
S11304B08E010B5F1F4FCC24CA94C70CD12CEFEFD5
S11304C0CE1ADE0A0F2EF5E0AF2EB12CF02DE12C62
S11304D0F12C0F2EF4ED4F2EF1E05F2EF02D3AC0EB
S11304E0C40127D1F10181931F01FFEF8F1A9F0AE5
S11304F0A814B904A9F7F80183811F928F9382810C
S11305001F928F9381811F928F9380811F928F936B
S1130510FF92EF925F924F920E94F50DFFEF27EA50
S113052081E6F15020408040E1F700C0000085E101
S113053091E040D59FEFE91AF90A0C5F1F4FE4E000
S1130540AE0EB11C0FB6F894DEBF0FBECDBFEC14D7
S1130550FD0431F0450194E0891A91081801C0CFD7
S1130560789410E00F2EF6EEAF2EF1E0BF2EF02DB2
S11305700F2EFDEE8F2EF1E09F2EF02D0F2EF5E0C5
S1130580CF2EF2E0DF2EF02D0F2EFCEFEF2EF1E058
S1130590FF2EF02DBF92AF920E94F50D0F900F9099
S11305A000E086E091E0F6D28F3FC9F09A8199830A
S11305B09B819A839C819B838C830F5F043009F019
S11305C099C0809116028260809316028AE290E0BC
S11305D00E94080E61E085E191E00AD602C0043071
S11305E000F38091160281FF78C000E085E191E07C
S11305F0E1D49F928F920E94F50DEFEFF3ED20E38B
S1130600E150F0402040E1F700C000000F900F904F
S113061071102FC035C09A01220F331F220F331FD0
S113062081E090E08C0F9D1F280F391F802F90E0F0
S1130630F901E80FF91FA1E0B0E0AC0FBD1FA80F4E
S1130640B91F64818C91681301C01F5F0F5F043070
S113065069F7143039F48091160288608D7F809395
S113066016020EC04F5F5F4F00E010E0471518F010
S113067005C040E050E0043070F2EBCF10E000E041
S113068085E191E097D48091160283FF0DC05F98B5
S113069080911602877F80931602FF92EF920E9448
S11306A0F50D0F900F900BC0DF92CF920E94F50DC5
S11306B0809116028D7F809316020F900F909FEF0A
S11306C0EBE7F2E99150E040F040E1F700C00000B0
S11306D05F9A8091160281FD89CF2FEF83ED90E31D
S11306E0215080409040E1F700C0000085E191E096
S11306F061D450CF8AE290E00E94080E61E085E167
S113070091E076D54ECF2FB330E1839FC001112401
S11307102F7C822B8FBB0895F999FECF27B7937056
S113072092BD81BD60BD8FB7F894FA9AF99A8FBFD4
S11307300895F999FECF937092BD81BDF89A80B562
S11307400895CF93DF93EC01198218821B821A82D9
S11307501D821C821F821E82198618868A859B85AB
S11307600E94A40C1B861A868C85887F8C878C85B6
S1130770877C8C878C858F738C878D85887F8D870C
S11307808D85877C8D878D858F7B8D878D858F77F4
S11307908D878E858E7F8E878E8581708E8781E092
S11307A0DF91CF910895AF92CF92DF92EF92FF92B3
S11307B00F93FC01718360835383428335832483C5
S11307C007709485987F092B0487F782E682D18687
S11307D0C0868A2D8770880F880F880F9485977C30
S11307E0A92EA82AA48685858064858781E00F9137
S11307F0FF90EF90DF90CF90AF900895CF92DF926B
S1130800EF92FF920F931F93CF93DF93CDB7DEB791
S11308100B851C858D85823099F08330F9F0813009
S113082009F08CC0F80184858F7380648487858582
S1130830887F846085878585877C806285871AC0E8
S1130840F80184858F73806884878585887F8460B8
S113085085878585877C886185870CC0F8018485B8
S1130860806C84878585887F856085878585877C7E
S113087088618587F8016585962F977065856695EB
S113088066956695677022853385969FB00111241D
S1130890C9010E942D0DF801938782878285938573
S11308A0892B09F44DC08585877009F441C0AE01D8
S11308B0425F5F4F60E070E0E12CC12CD12C30C06E
S11308C0AC2DBD2DF12CF801228533858585F82FBB
S11308D0F7704E5F5F4FF69FC001F79F900D112494
S11308E0F901EA0FFB1FE80FF91FDA0112978C9147
S11308F08083F394AF2DB0E0F801858586958695C5
S11309008695877090E0A817B907ECF2E3946E2DF2
S113091070E0F8018585877090E06817790744F4E2
S1130920F8018585869586958695877049F6EECF7C
S1130930F80185858068858781E003C082E001C075
S113094083E0DF91CF911F910F91FF90EF90DF90A3
S1130950CF900895DC011D962C911D9726FF12C19E
S11309601D962C911D9722230CF00EC11C962C91E0
S11309701C97229526952695237009F407C11C9689
S11309802C911C972295269526952370223009F4E4
S11309904EC008F099C0213009F0FAC01C965C9151
S11309A01C975770ED91FC9170812FE030E0D901D4
S11309B002C0AA0FBB1F5A95E2F7AD0140955095AE
S11309C047234083FC01548557700280F381E02D56
S11309D07081D90102C0AA0FBB1F5A95E2F7AD017D
S11309E0472B4083FC0144854695469546954770C0
S11309F00680F781E02D7081D90102C0AA0FBB1FC8
S1130A004A95E2F7AD01472B4083FC0144854695A6
S1130A104695469547700084F185E02D508102C0CB
S1130A20220F331F4A95E2F7252B208399C0DC015E
S1130A301C965C911C975770ED91FC9170812FE08E
S1130A4030E0D90102C0AA0FBB1F5A95E2F7AD01ED
S1130A504095509547234083FC01448547700280AC
S1130A60F381E02D508102C0220F331F4A95E2F733
S1130A70252B2083DC011C964C911C9746954695AA
S1130A80469547701696ED91FC911797708127E073
S1130A9030E0D90102C0AA0FBB1F4A95E2F7AD01AD
S1130AA0472B4083FC0144854695469546954770FF
S1130AB00084F185E02D508102C0220F331F4A9536
S1130AC0E2F7252B20834CC0DC011C965C911C971B
S1130AD05770ED91FC9170812FE130E0D90102C093
S1130AE0AA0FBB1F5A95E2F7AD01409550954723D5
S1130AF04083FC01448547700280F381E02D5081DE
S1130B0002C0220F331F4A95E2F7252B2083DC0114
S1130B101C964C911C97469546954695477016969B
S1130B20ED91FC911797708127E030E0D90102C064
S1130B30AA0FBB1F4A95E2F7AD01472B4083FC0186
S1130B40448546954695469547700084F185E02D89
S1130B50508102C0220F331F4A95E2F7252B2083D0
S1130B60660FDC011E962C911E972170622B1E9637
S1130B706C931E971E962C911E9721601E962C93A3
S1130B8081E0089584E0089585E0089582E0089561
S1130B9082E00895AF92BF92CF92DF92EF92FF92DC
S1130BA00F931F93CF93DF93FC01858586958695DC
S1130BB08695877009F4A2C0A12CB12C8FEF00E0B8
S1130BC061E070E0E12CF12CF8949485969596956B
S1130BD096959770C085D18548819501290F311D5F
S1130BE0DB0102C0AA0FBB1F2A95E2F79D012095E5
S1130BF0309524232883789400C000C00000C48169
S1130C00D58148819485977050E002C055954795E9
S1130C109A95E2F79585977009F44DC0CE2CDF2C98
S1130C2010E055279A010C2C02C0359527950A949B
S1130C30E2F720FD21C0C285D385258527702C9D30
S1130C40C0012D9D900D1124CA0DDB1DC80FD91FA5
S1130C5088819685969581F090E0AFE9BFE0119781
S1130C60F1F700C000009F5F26852695C92FD0E0CC
S1130C7030E0C217D3078CF3EB0102C0CC0FDD1FA9
S1130C80CA94E2F7A481B5812C919485977030E0E1
S1130C9002C0359527959A95E2F72C233D23232B03
S1130CA089F31F5FC12ED12C2585277030E0C21631
S1130CB0D3060CF4B7CFF8949485969596959695AB
S1130CC09770C085D1854881D501A90FB11D9B01BD
S1130CD002C0220F331FAA95E2F7242B28837894AD
S1130CE00F5FA02EB12C2585269526952695277075
S1130CF030E0A216B3060CF467CF01C08FEFDF918A
S1130D00CF911F910F91FF90EF90DF90CF90BF9004
S1130D10AF900895FC0111821082138212828481A3
S1130D20887F848316821582108617828185877C4A
S1130D3081878185887F818782858F7B8287828571
S1130D408F77828783858E7F838784858D7F848751
S1130D5084858B7F84878485877F848781858F734F
S1130D6081878285887F828783858F77838784853F
S1130D708E7F84878385817883878285877F828736
S1130D8082858061828782858F7D828780E0089555
S1130D90FC01718360835383428327708481887F3D
S1130DA0282B248384858260848780E008950F93B0
S1130DB0FC0176836583508747832770220F220FB7
S1130DC0220F8185877C282B218707708185887F66
S1130DD0082B018784858460848780E00F910895BF
S1130DE0FC01248523FF10C0EBE1F2E022E231E0B4
S1130DF035832483338322833183208390931502A4
S1130E008093140280E0089587E00895CF93DF93E0
S1130E10FC0131853770A781B0854C9181E090E069
S1130E20EC0102C0CC0FDD1F3A95E2F79E0120953C
S1130E30309524232C933185369536953695377025
S1130E40A781B0854C91EC0102C0CC0FDD1F3A950F
S1130E50E2F79E012095309524232C9354815770FA
S1130E60A281B3817C912FE030E0E90102C0CC0F74
S1130E70DD1F5A95E2F7AE014095509547234C93F8
S1130E8074817770A281B3815C91462F42954F7033
S1130E9001C0440F7A95EAF7452B4C93418546955A
S1130EA0469546954770A781B0857C91EC0102C0B8
S1130EB0CC0FDD1F4A95E2F7AE01472B4C93D5E0EA
S1130EC0DA95F1F700005185569556955695577069
S1130ED0A781B0857C91EC0102C0CC0FDD1F5A952F
S1130EE0E2F7AE014095509547234C93D5E0DA954F
S1130EF0F1F7000044814770A281B3815C9102C084
S1130F00220F331F4A95E2F72095309525232C9321
S1130F1044814770A281B3813C91262F2F7001C078
S1130F20220F4A95EAF7232B2C93218526952695A3
S1130F3026952770A781B0854C91EC0102C0CC0F97
S1130F40DD1F2A95E2F79E01242B2C93D5E0DA9538
S1130F50F1F7000021852695269526952770A7810F
S1130F60B0853C9102C0880F991F2A95E2F78095BD
S1130F70909583238C9325E02A95F1F70000615026
S1130F80623080F48FE39FE10197F1F700C0000025
S1130F9083858F77838784858E7F84878385817813
S1130FA0838704C095ED9A95F1F7000080E0DF9106
S1130FB0CF910895FC01248523FF03C061E026CF6F
S1130FC0089587E008950F931F93DC011C962C91DC
S1130FD01C9723FF9DC06130A9F419962C91199791
S1130FE0322F32953695369533701A962C91277098
S1130FF0220F220F232B2150223108F08BC02FEF18
S1131000240F6CC06230F9F4DC011996EC91199745
S11310102E2F22952695269523701A960C910770EB
S1131020000F000FE02FE22B0E2F10E0F801319794
S1131030E231F10518F4EC5CFF4FE8C383E071C0C2
S11310402FE3240F4BC0633029F5DC011996EC9192
S113105019972E2F22952695269523701A960C9172
S11310600770000F000FE02FE22B0E2F10E0F801A5
S11310703197E231F10518F4EA5BFF4FC7C383E00F
S113108050C02BE0240F2AC02FE0240F27C023E1F7
S1131090240F24C0DC011996EC9119972E2F229568
S11310A02695269523701A960C910770000F000F51
S11310B0E02FE22B0E2F10E0F8013197E231F10519
S11310C018F4E85AFF4FA2C383E02BC02BE4240F8B
S11310D005C02FE4240F02C023E5240FFC019FEF79
S11310E0960F9370838590FB87F983879695848503
S11310F08E7F982B948741504F73942F990F43857B
S11311004178492B4387622F6068CF017FDE09C095
S113111087E007C083E005C084E003C084E001C029
S113112084E01F910F910895DC011C968C911C970B
S113113083FF5AC01996EC9119979E2F9295969514
S1131140969593701A964C911A974770440F440FD2
S1131150E42FE92B4E2F50E0FA013197E231F105EB
S113116008F044C0E659FF4F51C341E061E0CD01AE
S11311702ACF08951B968C911B97982F991F992716
S1131180991F1C968C911C978170880F892B61E0A4
S1131190813009F460E06F5F41E0CD0114CF089520
S11311A01B968C911B97982F991F9927991F1C9612
S11311B08C911C978170880F892B833079F01B9652
S11311C06C911B97862F881F8827881F1C966C910B
S11311D01C976170660F682B6F5F01C060E06F5FE2
S11311E041E0CD01F0CE089587E0089583E00895AD
S11311F0FC01248523FF1EC061110EC083858695E2
S1131200815C8F73982F990F83858178892B8387CD
S113121060E1CF01FBCD0895938596959F5F9F7301
S1131220292F220F93859178922B938764E1CF0124
S1131230EDCD089587E00895CF93DF93FC013185C8
S11312403770A781B0854C9181E090E0EC0102C039
S1131250CC0FDD1F3A95E2F79E01209530952423AB
S11312602C9331853695369536953770A781B085A0
S11312704C91EC0102C0CC0FDD1F3A95E2F79E01C0
S11312802095309524232C9344814770A281B38107
S11312905C912FE030E002C0220F331F4A95E2F741
S11312A02095309525232C9334813770A281B38106
S11312B02C9162956F7001C0660F3A95EAF7622B24
S11312C06C9321852695269526952770A781B08550
S11312D04C91BC0102C0660F771F2A95E2F79B016F
S11312E0242B2C9375E07A95F1F70000218526953F
S11312F02695269527700780F085E02D308102C061
S1131300880F991F2A95E2F780959095832380830F
S113131085ED8A95F1F7000080E0DF91CF91089583
S11313200F931F93CF93DF93DC01442319F04130D3
S113133049F032C11A968C911A97877F1A968C932A
S11313401A9707C01A968C911A9788601A968C93EC
S11313501A97062F10E0F8013197E231F10508F0F1
S11313601DC1E458FF4F52C2862F8F716295660FDC
S1131370660F607C19969C9119979F73692B199637
S11313806C931997982F969596951A968C911A970F
S1131390887F892B1A968C931A9711E035C0862F73
S11313A08F716295660F660F607C19969C911997F0
S11313B09F73692B19966C931997982F9695969508
S11313C01A968C911A97887F892B1A968C931A9760
S11313D012E01AC0862F8F716295660F660F607CCB
S11313E019969C9119979F73692B19966C93199769
S11313F0982F969596951A968C911A97887F892B93
S11314001A968C931A9714E01C968C911C9781FF62
S1131410C7C01C968C911C9782FFC4C0ED013C810F
S11314203770EA81FB8140818FE090E0BC0102C00B
S1131430660F771F3A95E2F79B0120953095242398
S113144020832C812770E881F981308102C0880FC4
S1131450991F2A95E2F7832B808339853695369533
S113146036953770EF81F885408181E090E0BC01CA
S113147002C0660F771F3A95E2F79B0120953095DD
S11314802423208329852695269526952770ED818A
S1131490FE814081BC0102C0660F771F2A95E2F7E6
S11314A09B01242B208339853770EF81F885408197
S11314B0BC0102C0660F771F3A95E2F79B012095A5
S11314C030952423208329852770ED81FE81308186
S11314D002C0880F991F2A95E2F7832B80838FE53A
S11314E09AEE0197F1F700C0000060E3CD01A4DE9D
S11314F08FE19EE40197F1F700C0000060E3CE01A4
S11315009BDE8FEE90E00197F1F700C0000060E3EE
S1131510CE0192DE8FEE90E00197F1F700C000005B
S113152060E2CE0189DE8A858A8583FF02C064E297
S113153001C060E2123011F0143009F46860CE0189
S113154065DC68E0CE0162DC61E0CE015FDC8A85A7
S113155084FD02C064E001C066E08A8585FD6160A7
S1131560CE0154DC6CE0CE0151DC8C8588608C8724
S11315708A8580648A878A858F778A878B858E7F20
S11315808B878B858F778B878C858E7F8C878B85DC
S113159081788B8780E007C081E005C083E003C0C9
S11315A085E001C086E0DF91CF911F910F910895EE
S11315B0CF93DF93FC01848583FFC6C08385869522
S11315C08F7390E088970CF0C1C031853770A78184
S11315D0B0854C9181E090E0EC0102C0CC0FDD1F9E
S11315E03A95E2F79E01242B2C9331853695369556
S11315F036953770A781B0854C91EC0102C0CC0FB1
S1131600DD1F3A95E2F79E012095309524232C9313
S113161054815770A281B3817C912FE030E0E901BD
S113162002C0CC0FDD1F5A95E2F7AE0140955095EC
S113163047234C9374817770A281B3815C91462FC8
S113164042954F7001C0440F7A95EAF7452B4C93AD
S113165041854695469546954770A781B0857C910E
S1131660EC0102C0CC0FDD1F4A95E2F7AE01472B17
S11316704C93D5E0DA95F1F70000518556955695CF
S113168056955770A781B0857C91EC0102C0CC0FB0
S1131690DD1F5A95E2F7AE014095509547234C93D0
S11316A0D5E0DA95F1F7000044814770A281B38157
S11316B05C9102C0220F331F4A95E2F720953095C2
S11316C025232C9334813770A281B3812C916F70C0
S11316D001C0660F3A95EAF7622B6C932185269533
S11316E0269526952770A781B0854C91BC0102C030
S11316F0660F771F2A95E2F79B01242B2C9375E044
S11317007A95F1F700002185269526952695277070
S1131710A781B0853C9102C0880F991F2A95E2F7F2
S11317208095909583238C9385ED8A95F1F700003D
S1131730838586958F5F8F73982F990F8385817822
S1131740892B838780E003C087E001C080E0DF91BC
S1131750CF910895CF93DF93A0911402B091150215
S11317601C969C911C9793FF4CC01996EC91199769
S11317709E2F92959695969593701A964C911A97DA
S11317804770440F440FE42FE92B4E2F50E0FA0129
S11317903197E231F10590F5E257FF4F37C0D8E0B9
S11317A00FC0DCE00DC0D0E10BC0D4E109C0D8E12A
S11317B007C0DEE105C0D0E203C0D8E201C0DAE030
S11317C08A30A9F41B96CC91C695CF73CD1748F4F3
S11317D060E28091140290911502EADECF5FCD178A
S11317E0B8F380911402909115029EDC0AC0682F10
S11317F0CD01DEDE06C01B968C91F3CF8A30B9F79B
S1131800FACF80E090E0DF91CF910895EE0FFF1FB3
S11318100590F491E02D09940F931F93CF93DF93D8
S11318208230910510F482E090E0E0911902F09189
S11318301A0220E030E0A0E0B0E0309719F14081D6
S113184051810281138148175907C8F084179507FD
S113185069F4109731F012960C93129713961C9317
S113186027C00093190210931A0222C021153105D2
S113187019F04217530718F49A01BD01EF01DF0173
S1131880F801DBCF21153105F9F0281B390B243081
S1131890310580F48A819B816115710521F0FB017A
S11318A09383828304C090931A0280931902FE01E9
S11318B0329644C0FE01E20FF31F819391932250AC
S11318C03109398328833AC02091170230911802D4
S11318D0232B41F42091020130910301309318022B
S11318E02093170220910001309101012115310547
S11318F041F42DB73EB74091040150910501241BDA
S1131900350BE0911702F0911802E217F307A0F4E7
S11319102E1B3F0B2817390778F0AC014E5F5F4F41
S11319202417350748F04E0F5F1F50931802409359
S113193017028193919302C0E0E0F0E0CF01DF91C0
S1131940CF911F910F910895CF93DF93009709F4DE
S113195081C0FC01329713821282A0911902B091C6
S11319601A02109781F420813181820F931F2091F4
S11319701702309118022817390751F5F09318020D
S1131980E093170267C0ED0120E030E0CE17DF07D7
S113199040F44A815B819E0141155105F1F0EA0151
S11319A0F5CFD383C28340815181840F951FC8171B
S11319B0D90759F488819981840F951F02969183E0
S11319C080838A819B81938382832115310529F445
S11319D0F0931A02E09319023DC0E901FB83EA8304
S11319E049915991C40FD51FEC17FD0761F480810B
S11319F09181840F951F0296E901998388838281DE
S1131A0093819B838A83E0E0F0E012968D919C9110
S1131A101397009719F0FD01DC01F7CF8D919C918C
S1131A2011979D012E5F3F4F820F931F2091170244
S1131A30309118022817390769F4309729F4109265
S1131A401A021092190202C013821282B093180271
S1131A50A0931702DF91CF910895A0E0B0E0E2E3F4
S1131A60FDE091C3EC01009719F4CB01D5DEB0C0C1
S1131A70FC01E60FF71F9C0122503109E217F3071E
S1131A8008F4A4C0D9010D911C91119706171707EA
S1131A90A8F00530110508F497C0C801049786170B
S1131AA0970708F491C002501109061B170B019304
S1131AB011936D937C93CF0147DF86C05B01A01A1D
S1131AC0B10A4C01800E911EA0911902B0911A0224
S1131AD0612C712CE12CF12C109709F446C08D91E6
S1131AE09C911197A815B905B1F56C0142E0C40E9B
S1131AF0D11CCA14DB0478F14C018A189B086401D8
S1131B0042E0C40ED11C1296BC9012971396AC916D
S1131B10B5E0CB16D10440F0B282A38391828082D7
S1131B20D9016D937C9309C00E5F1F4F800F911FE5
S1131B30F90191838083EB2DFA2FE114F10431F044
S1131B40D7011396FC93EE9312973EC0F0931A02BA
S1131B50E093190239C06816790608F43C017D0146
S1131B6012960D90BC91A02DB7CF80911702909141
S1131B70180288169906E1F466167706C8F480916F
S1131B80000190910101009741F48DB79EB74091F7
S1131B90040150910501841B950BE817F907B0F473
S1131BA0F0931802E0931702F901718360830CC06B
S1131BB0CB0132DE7C01009749F0A801BE010CD0B4
S1131BC0CE01C2DEC70104C0CE0102C080E090E0B5
S1131BD0CDB7DEB7EEE0F3C2FB01DC0102C0019039
S1131BE00D9241505040D8F70895A0E0B0E0EAEFDC
S1131BF0FDE0D5C2AE014B5F5F4FFA016191719177
S1131C00AF0180911D0290911E0237D0E2E0E3C241
S1131C1060911D0270911E0218C20F931F93CF93FF
S1131C20DF93E0911D02F0911E02238121FF1BC06E
S1131C308C01D0E0C0E0F80181918F0160911D0218
S1131C4070911E02DB011896ED91FC91199788237F
S1131C5031F00995892B79F3DFEFCFEFECCF8AE0F0
S1131C600995892B19F08FEF9FEF02C08D2F9C2FC0
S1131C70DF91CF911F910F910895ABE0B0E0E2E4C2
S1131C80FEE07DC26C017B018A01FC011782168291
S1131C90838181FFBFC1CE0101963C01F60193818E
S1131CA0F70193FD859193FF81917F01882309F4C6
S1131CB0ADC1853239F493FD859193FF81917F0104
S1131CC0853221F4B60190E0C0D1E8CF912C212CCB
S1131CD0312CFFE1F315D8F08B3279F038F48032EF
S1131CE079F08332A1F4232D20611DC08D3261F07F
S1131CF0803369F4232D216016C0832D8260382E31
S1131D00E32DE4603E2E2AC0F32DF8601DC037FC9D
S1131D102DC020ED280F2A3040F08E32B9F436FC65
S1131D2075C1232D2064322E19C036FE06C08AE008
S1131D30989E200D1124922E11C0EAE02E9E200DB3
S1131D401124222EF32DF0623F2E08C08C3621F48C
S1131D50832D8068382E02C0883641F4F70193FD44
S1131D60859193FF81917F018111B3CF982F9F7D3E
S1131D709554933028F40C5F1F4F9FE399830DC053
S1131D80833631F0833771F0833509F055C020C0B4
S1131D90F801808189830E5F1F4F88248394912CDE
S1131DA0530112C02801F2E04F0E511CF801A0802B
S1131DB0B18036FE03C0692D70E002C06FEF7FEF83
S1131DC0C50138D14C018201F32DFF773F2E15C098
S1131DD0280122E0420E511CF801A080B18036FE99
S1131DE003C0692D70E002C06FEF7FEFC50117D10A
S1131DF04C01F32DF0683F2E820133FC19C0822D73
S1131E0090E088169906A0F4B60180E290E01DD116
S1131E102A94F5CFF50137FC859137FE81915F0156
S1131E20B60190E012D121102A9421E0821A91087F
S1131E308114910479F7E1C0843611F0893639F5BB
S1131E40F80137FE07C060817181828193810C5F44
S1131E501F4F08C060817181072E000C880B990BFD
S1131E600E5F1F4FF32DFF763F2E97FF09C090950D
S1131E708095709561957F4F8F4F9F4FF0683F2EEF
S1131E802AE030E0A3011DD1882E861844C085378E
S1131E9031F4232D2F7EB22E2AE030E025C0932D7D
S1131EA0997FB92E8F36C1F018F4883579F0AEC019
S1131EB0803719F0883721F0A9C0E92FE061BE2EE0
S1131EC0B4FE0DC0FB2DF460BF2E09C034FE0AC061
S1131ED0292F2660B22E06C028E030E005C020E19C
S1131EE030E002C020E132E0F801B7FE07C06081B3
S1131EF07181828193810C5F1F4F06C06081718163
S1131F0080E090E00E5F1F4FA301DBD0882E86187F
S1131F10FB2DFF773F2E36FE0DC0232D2E7FA22EE4
S1131F20891458F434FE0BC032FC09C0832D8E7E14
S1131F30A82E05C0B82CA32C03C0B82C01C0B92C02
S1131F40A4FE0FC0FE01E80DF11D8081803321F451
S1131F509A2D997EA92E09C0A2FE06C0B394B3940B
S1131F6004C08A2D867809F0B394A3FC10C0A0FEA7
S1131F7006C0B21480F4280C922C9B180DC0B21425
S1131F8058F4B60180E290E060D0B394F8CFB21474
S1131F9018F42B1802C0982C212CA4FE0FC0B601F3
S1131FA080E390E052D0A2FE16C0A1FC03C088E7F3
S1131FB090E002C088E590E0B6010CC08A2D8678D6
S1131FC051F0A1FE02C08BE201C080E2A7FC8DE2C9
S1131FD0B60190E03AD0891430F4B60180E390E081
S1131FE034D09A94F8CF8A94F301E80DF11D8081DE
S1131FF0B60190E02AD08110F6CF222009F44ECE0B
S1132000B60180E290E021D02A94F7CFF6018681D0
S1132010978102C08FEF9FEF2B96E2E1CCC0FC01C9
S11320200590615070400110D8F7809590958E0FFF
S11320309F1F0895FC016150704001900110D8F772
S1132040809590958E0F9F1F08950F931F93CF93A4
S1132050DF93FB01238121FD03C08FEF9FEF2CC091
S113206022FF16C0468157812481358142175307C8
S113207044F4A081B1819D012F5F3F4F31832083C0
S11320808C93268137812F5F3F4F3783268314C07B
S11320908B01EC01FB010084F185E02D0995892B6E
S11320A0E1F6D80116968D919C9117970196179693
S11320B09C938E931697CE01DF91CF911F910F9130
S11320C00895FA01AA27283051F1203181F1E894CA
S11320D06F936E7F6E5F7F4F8F4F9F4FAF4FB1E017
S11320E03ED0B4E03CD0670F781F891F9A1FA11D12
S11320F0680F791F8A1F911DA11D6A0F711D811D13
S1132100911DA11D20D009F468943F912AE0269FD7
S113211011243019305D3193DEF6CF010895462F36
S11321204770405D4193B3E00FD0C9F7F6CF462F17
S11321304F70405D4A3318F0495D31FD4052419380
S113214002D0A9F7EACFB4E0A6959795879577953D
S11321506795BA95C9F700976105710508959B01C4
S1132160AC010A2E06945795479537952795BA954D
S1132170C9F7620F731F841F951FA01D08952F9226
S11321803F924F925F926F927F928F929F92AF9203
S1132190BF92CF92DF92EF92FF920F931F93CF9350
S11321A0DF93CDB7DEB7CA1BDB0B0FB6F894DEBFE7
S11321B00FBECDBF09942A88398848885F846E840D
S11321C07D848C849B84AA84B984C884DF80EE8057
S11321D0FD800C811B81AA81B981CE0FD11D0FB660
S11321E0F894DEBF0FBECDBFED010895F894FFCF84
S11321F00000210220000000000000000000000098
S113220000000000020000000000000000000010B8
S113221000000000000200000000AA0B0000000003
S1132220416363657373436F6E74726F6C5F763171
S113223000436164617374726520612073656E6824
S11322406100202020202073656E686120202020FA
S1132250200A2020206361646173747261646120C8
S11322602020002831296E6F766F206361646173CA
S113227074726F0A283229636F6E74696E756172A5
S11322800020202020636164617374726F20202019
S1132290200A20202020636F6E636C7569646F20B0
S11322A020200020206E6F766F2063616461737458
S11322B0726F200070775F636F756E746572203D76
S11322C02025640073656E68612025643D256425BE
S11322D064256425640053656E68613A007665720E
S11322E069666963616E646F2E2E2E004C696265A7
S11322F07261646F0061636573736F206E656761FB
S1072300646F000002
S9030000FC
