S01600004163636573735F436F6E74726F6C2E737265637C
S11300000C94A0000C94BD000C94BD000C94BD0095
S11300100C94BD000C94BD000C94BD000C94BD0068
S11300200C94BD000C94BD000C94BD000C94BD0058
S11300300C94BD000C94BD000C94BD000C94BD0048
S11300400C94BD000C94BD000C94BD000C94BD0038
S11300500C94BD000C94BD000C94BD000C94BD0028
S11300600C94BD000C94BD00A908AB08AB08AB0808
S1130070AB08A908A908AB08AB08A908AB08AB08EA
S1130080A908AB08AB08AB08A908AB08C908C9089C
S1130090C908C908CB08C908C908C908CE08C908CD
S11300A0C908D108C908C908C908C908C908C908BC
S11300B0EC08EC08EC08EC08EE08EC08EC08EC089A
S11300C0F108EC08EC08F408EC08EC08EC08EC087F
S11300D0EC08EC084209470947094709590942094C
S11300E04209470959094209470959094209470977
S11300F04709470942094709320A440A440A440A9B
S1130100560A440A320A440A560A320A440A560A69
S1130110320A440A440A440A320A440A470C470C85
S1130120370C390C390C3B0C3B0C3B0C3B0C3D0C99
S11301303D0C3D0C3F0C3F0C410C430C450C450C55
S113014011241FBECFEFD8E0DEBFCDBF12E0A0E088
S1130150B1E0E2EDF2E202C005900D92A431B107E4
S1130160D9F722E0A4E1B2E001C01D92A132B207A6
S1130170E1F70E94BF000C9467110C940000CF9328
S1130180DF93CDB7DEB7C650D1400FB6F894DEBFCB
S11301900FBECDBF8AB18FEF8AB987B18F6087B99F
S11301A01092160219821A821B821C8280E00E941D
S11301B0C20386E091E00E94E003A12C0F2EF8E236
S11301C0CF2ED12CF02D0F2EF7E2EF2EF12CF02DA7
S11301D000E023E230E045E250E064E270E086E0D3
S11301E091E00E9412041F928DE08F931F928FE082
S11301F08F931F921F921F928EE08F931F928CE019
S11302008F931F9289E08F931F9288E08F931F92A0
S113021087E08F931F928BE08F931F9286E08F93DA
S11302201F9285E08F931F9284E08F931F928AE040
S11302308F931F9283E08F931F9282E08F931F927C
S113024081E08F938F9386E091E09F938F930E9438
S11302503D040FB6F894DEBF0FBECDBF64E186E067
S113026091E00E941A0585E191E00E940E0785E164
S113027091E00E94660805E024E04BE250E06AE267
S113028070E085E191E00E945C0720E04BE250E0E1
S11302906AE270E085E191E00E944C0740E068E08A
S11302A085E191E00E94150A85E191E00E947607BC
S11302B080E391E00E948B0E3FEF87EA91E6315094
S11302C080409040E1F700C0000085E191E00E9489
S11302D0660886E091E00E943E065F9A8E3009F03F
S11302E0DAC08091160281608093160280E090E06B
S11302F00E94D803813428F060E080E090E00E94FE
S1130300CB0380E090E00E94D803782E082F10E001
S1130310000F111F000F111F0F5F1F4F8091160256
S113032080FFB9C0512C0F2EF2E58F2EF1E09F2EE5
S1130330F02D0F2EF3E7AF2EF1E0BF2EF02D0F2E90
S1130340F3EBCF2EF1E0DF2EF02D0F2EF1E9EF2E9F
S1130350F1E0FF2EF02D81E491E00E948B0E652CDC
S113036086E091E00E943E068F3FE9F0262D30E0C2
S1130370E1E0F0E0EC0FFD1FE20FF31F8083682F34
S1130380C901800F911F0E94CB038AE290E00E9472
S1130390840E61E085E191E00E947F096394A3E00B
S11303A0A615F0F603C0B3E0B615D0F6EFE3E715F3
S11303B008F07394672D80E090E00E94CB030C5FFB
S11303C01F4F85E191E00E9466089F928F920E94E0
S11303D0700EFFEF27EA31E6F15020403040E1F79C
S11303E000C0000085E191E00E946608BF92AF92D0
S11303F00E94700E86E091E00E943E06682E8FEF08
S1130400860D0F900F900F900F90823048F086E089
S113041091E00E943E06682E8FEF860D8230B8F779
S113042085E191E00E94660882E0681215C080911F
S113043016028E7F80931602FF92EF920E94700E36
S11304409FEFA7EAB1E69150A040B040E1F700C0A9
S113045000000F900F9017C0E1E06E1214C080915D
S11304601602816080931602DF92CF920E94700E72
S1130470FFEF27EA31E6F15020403040E1F700C0B9
S113048000000F900F9085E191E00E946608809132
S1130490160280FD60CF80E090E00E94D803382EE1
S11304A080E4831550F460E080E090E00E94CB0388
S11304B080E090E00E94D803382E1F923F9284EC93
S11304C091E09F938F930E94700E9FEFA7EAB1E68D
S11304D09150A040B040E1F700C0000085E191E0F8
S11304E00E9466080F900F900F900F90332009F42C
S11304F06CC06E01E5E0CE0ED11C5E01F8E0AF0EDB
S1130500B11C26018FEF830D90E09C012F5F3F4FBC
S1130510CB5FDE4F39832883C550D140E12CF12CC9
S1130520212C49C0C401800F911F0E94D803D3011C
S11305308D933D010F5F1F4F0430110599F7F501AD
S113054080811F928F93319780811F928F9331976F
S113055080811F928F93D6018C911F928F93FF926B
S1130560EF92A4EDB1E0BF93AF930E94700EFFEF42
S113057027EA31E6F15020403040E1F700C00000A6
S113058085E191E00E9466088FEFE81AF80A94E08A
S1130590A90EB11CA4E0CA0ED11C0FB6F894DEBF9C
S11305A00FBECDBFCB5FDE4F28813981C550D1400E
S11305B0E216F30651F03601022D10E046018418CC
S11305C095083FEF831A930AADCF789410E00F2E6D
S11305D0F6EEAF2EF1E0BF2EF02D0F2EFDEE8F2E96
S11305E0F1E09F2EF02D0F2EF5E0CF2EF2E0DF2E5E
S11305F0F02D0F2EFCEFEF2EF1E0FF2EF02D512CFD
S1130600612CBF92AF920E94700E0F900F9000E089
S113061086E091E00E943E068F3F29F19A819983FA
S11306209B819A839C819B838C830F5F043079F434
S1130630809116028260809316028AE290E00E9402
S1130640840E61E085E191E00E947F090EC08AE298
S113065090E00E94840E61E085E191E00E947F09B0
S1130660043018F4D5CF043098F28091160281FF3B
S11306707BC000E0412C742C85E191E00E94660867
S11306809F928F920E94700E8FEF93EDA0E38150A2
S11306909040A040E1F700C000000F900F9033207D
S11306A0A9F1452D562D22C0802F90E0F901E80FC5
S11306B0F91FA1E0B0E0AC0FBD1FA80FB91F648102
S11306C08C91681301C01F5F0F5F043069F7143009
S11306D039F48091160288608D7F8093160216C0CB
S11306E04F5F5F4F431580F4072D172D043078F7C3
S11306F09A01220F331F220F331FE1E0F0E0EC0FC9
S1130700FD1F2E0F3F1FD0CF142D042D85E191E046
S11307100E9466088091160283FF0DC05F98809145
S11307201602877F80931602FF92EF920E94700E4A
S11307300F900F900BC0DF92CF920E94700E8091A9
S113074016028D7F809316020F900F90FFEF2BE718
S113075032E9F15020403040E1F700C000005F9AD8
S11307608091160281FD88CF8FEF93EDA0E3815035
S11307709040A040E1F700C0000085E191E00E94B4
S113078066083FCF2FB330E1839FC00111242F7C33
S1130790822B8FBB0895F999FECF27B7937092BD32
S11307A081BD60BD8FB7F894FA9AF99A8FBF089506
S11307B0F999FECF937092BD81BDF89A80B50895E2
S11307C0CF93DF93EC01198218821B821A821D8257
S11307D01C821F821E82198618868A859B850E9428
S11307E00E0D1B861A868C85887F8C878C85877C6A
S11307F08C878C858F738C878D85887F8D878D857D
S1130800877C8D878D858F7B8D878D858F778D8771
S11308108E858E7F8E878E8581708E8781E0DF91B5
S1130820CF910895AF92CF92DF92EF92FF920F9300
S1130830FC0171836083538342833583248307706F
S11308409485987F092B0487F782E682D186C08637
S11308508A2D8770880F880F880F9485977CA92E1E
S1130860A82AA48685858064858781E00F91FF90FE
S1130870EF90DF90CF90AF9008956F927F928F9218
S11308809F92AF92BF92CF92DF92EF92FF920F931B
S11308901F93CF93DF93CDB7DEB709891A898B896C
S11308A08230F1F0833051F1813009F0B1C0D801C8
S11308B01C968C911C978F7380641C968C931C9748
S11308C01D968C911D97887F84601D968C931D972F
S11308D01D968C911D97877C80621D968C9325C0F4
S11308E0F80184858F73806884878585887F846018
S11308F085878585877C8861858717C0D8011C9684
S11309008C911C97806C1C968C931C971D968C91D3
S11309101D97887F85601D968C931D971D968C91DD
S11309201D97877C88611D968C93F80135853770F7
S11309302585269526952695277082859385329F51
S1130940B00111240E949D0DD8011B969C938E9397
S11309501A971A968D919C911B97892B09F45AC06A
S1130960CE0144961D962C91277009F448C0982E08
S1130970A92E60E070E0E12CB12CC12CD12C32C046
S1130980FC01D8011A966D907C901B971D968C9152
S11309908770882ECF010296982EA92E869EA001DC
S11309A0879E500D1124260D371DD901A40FB51FA4
S11309B020812C93F3942F2D30E0F8014585469542
S11309C046954695477050E024173507CCF2E394DA
S11309D06E2D70E0D8011D968C91877090E0681799
S11309E079076CF4F80185858695869586958770D8
S11309F071F3E92DFA2D2B2D3C2DFD2CC2CFD801FE
S1130A001D968C911D9780681D968C9381E003C080
S1130A1082E001C083E0DF91CF911F910F91FF909D
S1130A20EF90DF90CF90BF90AF909F908F907F908A
S1130A306F900895DC011D962C911D9726FF16C119
S1130A401D962C911D9722230CF012C11C962C91FB
S1130A501C97207C09F40EC11C962C911C9722959E
S1130A6026952695237030E02230310509F456C0CE
S1130A702330310509F4A1C02130310509F0FCC04F
S1130A80ED91FC91119770811C964C9147702FE069
S1130A9030E0D90102C0AA0FBB1F4A95E2F7AD01AD
S1130AA0409547234083DC011296ED91FC91139706
S1130AB070811C964C914770D90102C0AA0FBB1FCC
S1130AC04A95E2F7AD01472B4083DC011696ED9180
S1130AD0FC91179770811C965C9156955695569586
S1130AE05770D90102C0AA0FBB1F5A95E2F7AD0196
S1130AF0472B4083DC011896ED91FC9119975081A6
S1130B001C964C91469546954695477002C0220F17
S1130B10331F4A95E2F7252B20839DC0DC01ED911C
S1130B20FC91119770811C964C9147702FE030E036
S1130B30D90102C0AA0FBB1F4A95E2F7AD01409547
S1130B4047234083DC011296ED91FC911397408179
S1130B501C965C911C97577002C0220F331F5A9544
S1130B60E2F7242B20831696ED91FC911797708160
S1130B701C965C91569556955695577027E030E033
S1130B80D90102C0AA0FBB1F5A95E2F7AD01472B4A
S1130B904083DC011896ED91FC91199750811C96C5
S1130BA04C91469546954695477002C0220F331FD7
S1130BB04A95E2F7252B20834EC0DC01ED91FC9190
S1130BC0119770811C964C9147702FE130E0D90148
S1130BD002C0AA0FBB1F4A95E2F7AD014095472317
S1130BE04083DC011296ED91FC91139740811C9691
S1130BF05C911C97577002C0220F331F5A95E2F77D
S1130C00242B20831696ED91FC91179770811C96E6
S1130C105C91569556955695577027E030E0D9016A
S1130C2002C0AA0FBB1F5A95E2F7AD01472B4083C0
S1130C30DC011896ED91FC91199750811C964C910A
S1130C40469546954695477002C0220F331F4A9534
S1130C50E2F7252B2083660FFC0126852170622B89
S1130C60668726852160268781E0089584E00895BB
S1130C7085E0089582E0089582E008956F927F925E
S1130C809F92AF92BF92CF92DF92EF92FF920F9317
S1130C901F93CF93DF93FC01858586958695869572
S1130CA0877009F4AAC000E010E0EE24EA94C12C95
S1130CB081E090E0A12C912CB12CDB2CF894A08540
S1130CC0B1854C9134853695369536953770B80193
S1130CD0630F711DEC01062E02C0CC0FDD1F0A94B8
S1130CE0E2F79E01209524232C93789400C000C041
S1130CF00000A481B5812C91C485C77030E0A9019E
S1130D0002C055954795CA95E2F72585277009F4E1
S1130D1052C06A2D792DFB2C3A0177249301062EBB
S1130D2002C0359527950A94E2F720FD22C042853A
S1130D305385A585A770A69F9001A79F300D112408
S1130D40400F511FDA01A20FB31FEC9026852695A0
S1130D5081F0AD2DCFE9DFE02197F1F700C000006D
S1130D60AF5F268526954A2F50E030E0421753079F
S1130D708CF39C0102C0220F331F6A95E2F7B9017C
S1130D80A481B5814C912485277050E0DA0102C01A
S1130D90B595A7952A95E2F79D0126233723232BA2
S1130DA079F3F3946F2D70E02585277030E0621796
S1130DB073070CF4B3CFF894A085B1854C913485B6
S1130DC03695369536953770030F111D9C0102C078
S1130DD0220F331F0A95E2F7242B2C937894C394A3
S1130DE00C2D10E02585269526952695277030E054
S1130DF0021713070CF462CF02C0EE24EA948E2D7E
S1130E00DF91CF911F910F91FF90EF90DF90CF90E2
S1130E10BF90AF909F907F906F900895FC011182D6
S1130E201082138212828481887F848316821582C1
S1130E30108617828185877C81878185887F818759
S1130E4082858F7B828782858F77828783858E7F59
S1130E50838784858D7F848784858B7F848784853D
S1130E60877F848781858F7381878285887F828746
S1130E7083858F77838784858E7F84878385817834
S1130E8083878285877F8287828580618287828546
S1130E908F7D828780E00895FC0171836083538392
S1130EA04283822F87702481287F282B2483848582
S1130EB08260848780E008950F93FC0176836583C4
S1130EC0508747832770220F220F220F8185877C4A
S1130ED0282B2187802F87700185087F082B0187A5
S1130EE084858460848780E00F910895FC012485C3
S1130EF023FF14C022E231E03093200220931F022A
S1130F0030931E0220931D0230931C0220931B0277
S1130F10909315028093140280E0089587E0089569
S1130F20CF93DF93FC01A781B0854C912185277075
S1130F3081E090E0EC0102C0CC0FDD1F2A95E2F7BE
S1130F409E01209524232C93A781B0854C91218563
S1130F502695269526952770EC0102C0CC0FDD1F3F
S1130F602A95E2F79E01209524232C93A281B38134
S1130F707C91248127704FE050E0EA0102C0CC0F3D
S1130F80DD1F2A95E2F79E01209527232C93A28149
S1130F90B3813C9144814770262F22952F7001C064
S1130FA0220F4A95EAF7232B2C93A781B0853C9115
S1130FB02185269526952695277002C0880F991FAE
S1130FC02A95E2F7832B8C93D5E0DA95F1F70000AC
S1130FD0A781B0854C918185869586958695877085
S1130FE021E030E0E90102C0CC0FDD1F8A95E2F771
S1130FF0CE01809584238C93D5E0DA95F1F7000037
S1131000A281B3814C91848187702FE030E0E901A3
S113101002C0CC0FDD1F8A95E2F7CE0180958423B0
S11310208C93A281B3819C9124812770862F8F7029
S113103001C0880F2A95EAF7892B8C93A781B08584
S11310404C919185969596959695977021E030E010
S1131050E90102C0CC0FDD1F9A95E2F7CE01842B83
S11310608C93D5E0DA95F1F70000A781B0854C9117
S113107081858695869586958770E90102C0CC0F97
S1131080DD1F8A95E2F7CE01809584238C93D5E009
S1131090DA95F1F700006150623080F48FE39FE14C
S11310A00197F1F700C0000083858F7783878485DB
S11310B08E7F848783858178838704C095ED9A9594
S11310C0F1F7000080E0DF91CF910895FC012485C1
S11310D023FF04C061E00E949007089587E008950B
S11310E0DC011C968C911C9783FFA5C06130B1F480
S11310F019969C91199792959695969593701A9630
S11311008C911A978770880F880F892B90E001972C
S1131110429708F092C09FEF940F68C06230F1F4D8
S113112019969C91199792959695969593701A96FF
S11311308C911A978770880F880F892B90E00197FC
S11311408231910508F07BC08C5C9F4FFC010C94AC
S1131150700C84E008959FE3940F48C0633021F538
S113116019969C91199792959695969593701A96BF
S11311708C911A978770880F880F892B90E00197BC
S11311808231910508F05DC08A5B9F4FFC010C948D
S1131190700C84E008959BE0940F28C09FE0940FA6
S11311A025C093E1940F22C019969C9119979295AA
S11311B09695969593701A968C911A978770880FC6
S11311C0880F892B90E0019782319105E0F5885AC8
S11311D09F4FFC010C94700C84E008959BE4940FE1
S11311E005C09FE4940F02C093E5940F61506370AF
S11311F01B968C911B9760FB87F91B968C931B970E
S113120066951C968C911C978E7F862B1C968C93CE
S11312101C978FEF840F8F73880F1B964C911B972D
S11312204178482B1B964C931B97692F6068CD011E
S11312300E949007089587E0089583E0089583E06D
S1131240089583E0089583E00895DC011C962C91B1
S11312501C9723FF50C019962C9119972295269517
S1131260269523701A96EC91E770EE0FEE0FE22BA1
S1131270F0E03197E231F10508F03FC0E659FF4F45
S11312800C94700C41E061E00E9470080895FC0128
S11312903385331F3327331F24852170220F232BDB
S11312A061E0213009F460E06F5F41E00E94700862
S11312B00895DC011B963C911B97331F3327331F82
S11312C01C962C911C972170220F232B233069F03C
S11312D01B962C911B97221F2227221F1C966C9170
S11312E06170660F622B6F5F01C060E06F5F41E069
S11312F00E947008089587E0089583E00895FC0132
S1131300248523FF1DC061110DC033853695315CE2
S11313103F73330F23852178232B238760E10E94B9
S113132090070895FC01338536953F5F3F73330F73
S113133023852178232B238764E10E949007089555
S113134087E00895CF93DF93FC01A781B0854C918A
S11313502185277081E090E0EC0102C0CC0FDD1FF5
S11313602A95E2F79E01209524232C93A781B0852A
S11313704C9121852695269526952770EC0102C06F
S1131380CC0FDD1F2A95E2F79E01209524232C9390
S1131390A281B3817C91248127704FE050E0EA015F
S11313A002C0CC0FDD1F2A95E2F79E01209527236A
S11313B02C93A281B3812C913481377062956F7024
S11313C001C0660F3A95EAF7622B6C93A781B0854A
S11313D03C912185269526952695277002C0880F75
S11313E0991F2A95E2F7832B8C93D5E0DA95F1F7D0
S11313F00000A781B0854C91818586958695869558
S1131400877021E030E0B90102C0660F771F8A952A
S1131410E2F7CB01809584238C9375ED7A95F1F7EF
S1131420000080E0DF91CF9108951F93CF93DF9365
S1131430EC01862F442319F0413029F011C19A851B
S1131440977F9A8703C09A8598609A87482F50E0BF
S1131450FA013197E231F10508F004C1E458FF4F75
S11314600C94700C982F9F718295880F880F807C44
S113147029852F73822B8987969596958A85887FEF
S1131480892B8A8711E023C0982F9F718295880F3A
S1131490880F807C29852F73822B89879695969552
S11314A08A85887F892B8A8712E011C0982F9F71C3
S11314B08295880F880F807C29852F73822B8987DA
S11314C0969596958A85887F892B8A8714E08C85E2
S11314D081FFCAC08C8582FFC9C0EA81FB8140813B
S11314E02C8127708FE090E0BC0102C0660F771F4B
S11314F02A95E2F79B01209524232083E881F98132
S113150020813C81377002C0880F991F3A95E2F719
S1131510822B8083EF81F885408129852695269545
S11315202695277081E090E0BC0102C0660F771F0A
S11315302A95E2F79B01209524232083ED81FE81E7
S1131540408139853695369536953770BC0102C091
S1131550660F771F3A95E2F79B01242B2083EF81D6
S1131560F885408129852770BC0102C0660F771F6A
S11315702A95E2F79B01209524232083ED81FE81A7
S113158020813985377002C0880F991F3A95E2F798
S1131590822B80838FE59AEE0197F1F700C000005B
S11315A060E3CE010E94A2098FE19EE40197F1F766
S11315B000C0000060E3CE010E94A2098FEE90E01B
S11315C00197F1F700C0000060E3CE010E94A20978
S11315D08FEE90E00197F1F700C0000060E2CE01C9
S11315E00E94A2098A858A8583FD02C060E201C047
S11315F064E2123011F0143009F46860CE010E94E4
S1131600900768E0CE010E94900761E0CE010E943D
S113161090078A8584FF02C066E001C064E08A8581
S113162085FD6160CE010E9490076CE0CE010E94AE
S113163090078C8588608C878A8580648A878A85F0
S11316408F778A878B858E7F8B878B858F778B8728
S11316508C858E7F8C878B8581788B8780E007C013
S113166081E005C083E003C085E001C086E0DF912E
S1131670CF911F910895CF93DF93FC01848583FF5D
S1131680C8C0838586958F7390E088970CF0C3C09B
S1131690A781B0854C912185277081E090E0EC0111
S11316A002C0CC0FDD1F2A95E2F79E01242B2C9358
S11316B0A781B0854C91218526952695269527707E
S11316C0EC0102C0CC0FDD1F2A95E2F79E012095A4
S11316D024232C93A281B3817C91248127704FE031
S11316E050E0EA0102C0CC0FDD1F2A95E2F79E010B
S11316F0209527232C93A281B3813C914481477088
S1131700262F22952F7001C0220F4A95EAF7232B2A
S11317102C93A781B0853C91218526952695269505
S1131720277002C0880F991F2A95E2F7832B8C93A8
S1131730D5E0DA95F1F70000A781B0854C91818559
S1131740869586958695877021E030E0E90102C090
S1131750CC0FDD1F8A95E2F7CE01809584238C930C
S1131760D5E0DA95F1F70000A281B3814C91848130
S113177087702FE030E0E90102C0CC0FDD1F8A95AD
S1131780E2F7CE01809584238C93A281B3818C915E
S1131790948197706F7001C0660F9A95EAF7682B71
S11317A06C93A781B0854C91918596959695969565
S11317B0977021E030E0B90102C0660F771F9A9557
S11317C0E2F7CB01842B8C9375E07A95F1F7000056
S11317D0A781B0854C91818586958695869587707D
S11317E0E90102C0CC0FDD1F8A95E2F7CE01809596
S11317F084238C93D5EDDA95F1F7000093859695C3
S11318009F5F9F73990F83858178892B838780E0FD
S113181003C087E001C080E0DF91CF9108950F936A
S11318201F93CF93DF93A0911402B09115021C96DD
S11318309C911C9793FF4DC019969C911997929572
S11318409695969593701A962C911A972770220F55
S1131850220F292B30E0215031092231310528F49F
S113186022573F4FF9010C94700C10E011C01AE09C
S11318700FC01CE00DC010E10BC014E109C018E159
S113188007C01EE105C010E203C018E201C018E061
S11318908A30D9F41B960C9106950F73011770F4D6
S11318A0C0E0D0E060E280911402909115020E94A1
S11318B03B0B21968C2F800F8117A0F3809114028B
S11318C0909115020E94250904C0682FCD010E9441
S11318D03B0B80E090E0DF91CF911F910F91089531
S11318E0EE0FFF1F0590F491E02D0994CF93DF9341
S11318F08230910510F482E090E0E0911902F091B9
S11319001A0220E030E0A0E0B0E0309739F14081E5
S1131910518148175907B8F04817590771F4828163
S11319209381109729F013969C938E9312972CC051
S113193090931A028093190227C02115310531F0C2
S11319404217530718F0A901DB0101C0EF019A0106
S1131950BD01DF010280F381E02DD7CF21153105D0
S1131960F9F0281B390B2430310580F48A819B81DE
S11319706115710521F0FB019383828304C0909368
S11319801A0280931902FE01329644C0FE01E20F4E
S1131990F31F8193919322503109398328833AC0EC
S11319A02091170230911802232B41F42091020157
S11319B03091030130931802209317022091000103
S11319C0309101012115310541F42DB73EB7409105
S11319D0040150910501241B350BE0911702F0918D
S11319E01802E217F307A0F42E1B3F0B2817390740
S11319F078F0AC014E5F5F4F2417350748F04E0F67
S1131A005F1F50931802409317028193919302C071
S1131A10E0E0F0E0CF01DF91CF910895CF93DF9321
S1131A20009709F487C0FC01329713821282C09197
S1131A301902D0911A02209781F420813181280F54
S1131A40391F80911702909118028217930779F534
S1131A50F0931802E09317026DC0DE0120E030E03D
S1131A60AE17BF0750F412964D915C9113979D01E8
S1131A704115510509F1DA01F3CFB383A283408103
S1131A805181840F951F8A179B0771F48D919C9146
S1131A901197840F951F02969183808312968D91DE
S1131AA09C911397938382832115310529F4F09334
S1131AB01A02E09319023EC0D9011396FC93EE93E7
S1131AC012974D915D91A40FB51FEA17FB0779F4A6
S1131AD080819181840F951F0296D90111969C9360
S1131AE08E938281938113969C938E931297E0E058
S1131AF0F0E08A819B81009719F0FE01EC01F9CF97
S1131B00CE01029628813981820F931F20911702FA
S1131B10309118022817390769F4309729F4109284
S1131B201A021092190202C013821282D093180270
S1131B30C0931702DF91CF910895A0E0B0E0E3EAEB
S1131B40FDE00C943411EC01CB01209719F40E94B0
S1131B50760CB8C0FE01E60FF71F9E012250310932
S1131B60E217F30708F4ACC0D9010D911C91119749
S1131B7006171707B8F00530110508F49FC0A8012F
S1131B80445051094617570708F498C002501109E8
S1131B90061B170B019311936D937C93CF010E9445
S1131BA00E0D8CC05B01A01AB10A4E01800E911E6D
S1131BB0A0911902B0911A02612C712C60E070E0BE
S1131BC0109709F449C0A815B905C9F5ED90FC9022
S1131BD01197670142E0C40ED11CCA14DB0478F1EA
S1131BE047018A189B08640142E0C40ED11C129676
S1131BF0BC9012971396AC91B5E0CB16D10440F08B
S1131C00B282A38391828082D9018D939C9309C06F
S1131C100E5F1F4F0E0D1F1DF90111830083EB2D65
S1131C20FA2F6115710531F0DB011396FC93EE93E5
S1131C30129744C0F0931A02E09319023FC06D91C9
S1131C407C9111976616770608F43B01BD01129644
S1131C500D90BC91A02DB4CF609117027091180221
S1131C6068157905E9F468167906D0F44091000105
S1131C70509101014115510541F44DB75EB7609192
S1131C80040170910501461B570BE417F507C0F4D6
S1131C90F0931802E0931702F901918380830EC038
S1131CA00E94760C7C01009759F0A801BE010E94A5
S1131CB0670ECE010E940E0DC70104C0CE0102C002
S1131CC080E090E0CDB7DEB7EEE00C945011FB015C
S1131CD0DC0102C001900D9241505040D8F70895A4
S1131CE0A0E0B0E0E6E7FEE00C944011FE0135967A
S1131CF061917191AF0180911D0290911E020E9429
S1131D00B80EE2E00C945C1160911D0270911E0209
S1131D100E94A01008950F931F93CF93DF93E09137
S1131D201D02F0911E02238121FF1BC0EC0100E083
S1131D3010E0899160911D0270911E02DB011896DA
S1131D40ED91FC911997882331F00995892B89F33A
S1131D500FEF1FEFEECF8AE00995892B11F4C8012C
S1131D6002C08FEF9FEFDF91CF911F910F910895E4
S1131D70ACE0B0E0EEEBFEE00C9430117C016B01C2
S1131D808A01FC0117821682838181FFBDC1CE01C5
S1131D9001964C01F7019381F60193FD859193FF20
S1131DA081916F01882309F4ABC1853239F493FD25
S1131DB0859193FF81916F01853229F4B70190E0F9
S1131DC00E94A010E7CF512C312C20E02032A0F447
S1131DD08B3269F030F4803259F0833269F4206137
S1131DE02CC08D3239F0803339F4216026C0226052
S1131DF0246023C0286021C027FD27C030ED380FA0
S1131E003A3078F426FF06C0FAE05F9E300D1124C4
S1131E10532E13C08AE0389E300D1124332E2062D5
S1131E200CC08E3221F426FD6BC1206406C08C36B2
S1131E3011F4206802C0883641F4F60193FD8591BF
S1131E4093FF81916F018111C1CF982F9F7D95548C
S1131E50933028F40C5F1F4FFFE3F9830DC08336E2
S1131E6031F0833771F0833509F05BC022C0F8018B
S1131E70808189830E5F1F4F44244394512C540165
S1131E8015C03801F2E06F0E711CF801A080B1801A
S1131E9026FF03C0652D70E002C06FEF7FEFC50120
S1131EA02C870E9495102C0183012C852F77222EDC
S1131EB017C03801F2E06F0E711CF801A080B180E8
S1131EC026FF03C0652D70E002C06FEF7FEFC501F0
S1131ED02C870E948A102C012C852068222E8301D5
S1131EE023FC1BC0832D90E048165906B0F4B701BB
S1131EF080E290E00E94A0103A94F4CFF50127FC10
S1131F00859127FE81915F01B70190E00E94A010A6
S1131F1031103A94F1E04F1A51084114510471F709
S1131F20E5C0843611F0893639F5F80127FF07C07A
S1131F3060817181828193810C5F1F4F08C0608131
S1131F407181882777FD8095982F0E5F1F4F2F761C
S1131F50B22E97FF09C090958095709561957F4F3B
S1131F608F4F9F4F2068B22E2AE030E0A4010E94D8
S1131F70D210A82EA81844C0853729F42F7EB22E7B
S1131F802AE030E025C0F22FF97FBF2E8F36C1F052
S1131F9018F4883579F0B4C0803719F0883721F007
S1131FA0AFC02F2F2061B22EB4FE0DC08B2D8460E4
S1131FB0B82E09C024FF0AC09F2F9660B92E06C010
S1131FC028E030E005C020E130E002C020E132E04A
S1131FD0F801B7FE07C060817181828193810C5F33
S1131FE01F4F06C06081718180E090E00E5F1F4F3B
S1131FF0A4010E94D210A82EA818FB2DFF77BF2E93
S1132000B6FE0BC02B2D2E7FA51450F4B4FE0AC0CF
S1132010B2FC08C02B2D2E7E05C07A2C2B2D03C0BC
S11320207A2C01C0752C24FF0DC0FE01EA0DF11DB0
S11320308081803311F4297E09C022FF06C0739485
S1132040739404C0822F867809F0739423FD13C01F
S113205020FF06C05A2C731418F4530C5718732C11
S1132060731468F4B70180E290E02C870E94A010FA
S113207073942C85F5CF731410F4371801C0312CE8
S113208024FF12C0B70180E390E02C870E94A010C7
S11320902C8522FF17C021FF03C088E590E002C011
S11320A088E790E0B7010CC0822F867859F021FDB3
S11320B002C080E201C08BE227FD8DE2B70190E00F
S11320C00E94A010A51438F4B70180E390E00E94A8
S11320D0A0105A94F7CFAA94F401EA0DF11D80815F
S11320E0B70190E00E94A010A110F5CF332009F4AD
S11320F051CEB70180E290E00E94A0103A94F6CF4E
S1132100F7018681978102C08FEF9FEF2C96E2E161
S11321100C944C11FC010590615070400110D8F7EB
S1132120809590958E0F9F1F0895FC01615070401B
S113213001900110D8F7809590958E0F9F1F0895F8
S11321400F931F93CF93DF93182F092FEB018B81EC
S113215081FD03C08FEF9FEF20C082FF10C04E812E
S11321605F812C813D81421753077CF4E881F9811A
S11321709F012F5F3F4F39832883108306C0E88572
S1132180F985812F0995892B29F72E813F812F5FAE
S11321903F4F3F832E83812F902FDF91CF911F914B
S11321A00F910895FA01AA27283051F1203181F1C5
S11321B0E8946F936E7F6E5F7F4F8F4F9F4FAF4F4B
S11321C0B1E03ED0B4E03CD0670F781F891F9A1F5E
S11321D0A11D680F791F8A1F911DA11D6A0F711D12
S11321E0811D911DA11D20D009F468943F912AE01E
S11321F0269F11243019305D3193DEF6CF01089506
S1132200462F4770405D4193B3E00FD0C9F7F6CF36
S1132210462F4F70405D4A3318F0495D31FD4052FE
S1132220419302D0A9F7EACFB4E0A6959795879594
S113223077956795BA95C9F7009761057105089573
S11322409B01AC010A2E069457954795379527951F
S1132250BA95C9F7620F731F841F951FA01D0895B7
S11322602F923F924F925F926F927F928F929F92A2
S1132270AF92BF92CF92DF92EF92FF920F931F9390
S1132280CF93DF93CDB7DEB7CA1BDB0B0FB6F89441
S1132290DEBF0FBECDBF09942A88398848885F8481
S11322A06E847D848C849B84AA84B984C884DF80F2
S11322B0EE80FD800C811B81AA81B981CE0FD11DD6
S11322C00FB6F894DEBF0FBECDBFED010895F894AC
S10522D0FFCF3A
S11322D200002102200000000000000000000000B5
S11322E200000000020000000000000000000010D6
S11322F2000000000002000000000F0C00000000BB
S1132302416363657373436F6E74726F6C5F76318E
S113231200436164617374726520612073656E6841
S11323226100202020202073656E68612020202017
S1132332200A2020206361646173747261646120E5
S11323422020002831296E6F766F206361646173E7
S113235274726F0A283229636F6E74696E756172C2
S11323620020202020636164617374726F20202036
S1132372200A20202020636F6E636C7569646F20CD
S113238220200020206E6F766F2063616461737475
S1132392726F200070775F636F756E746572203D93
S11323A22025640073656E68612025643D256425DB
S11323B264256425640053656E68613A007665722B
S11323C269666963616E646F2E2E2E004C696265C4
S11323D27261646F0061636573736F206E65676118
S10723E2646F000020
S9030000FC
